{
  "contractName": "Results",
  "abi": [
    {
      "inputs": [],
      "stateMutability": "nonpayable",
      "type": "constructor"
    },
    {
      "inputs": [
        {
          "internalType": "string",
          "name": "_hash",
          "type": "string"
        },
        {
          "internalType": "uint256",
          "name": "_sem",
          "type": "uint256"
        },
        {
          "internalType": "string",
          "name": "_roll",
          "type": "string"
        }
      ],
      "name": "set",
      "outputs": [],
      "stateMutability": "nonpayable",
      "type": "function"
    },
    {
      "inputs": [
        {
          "internalType": "string",
          "name": "_roll",
          "type": "string"
        },
        {
          "internalType": "uint256",
          "name": "_sem",
          "type": "uint256"
        }
      ],
      "name": "get",
      "outputs": [
        {
          "internalType": "string",
          "name": "",
          "type": "string"
        }
      ],
      "stateMutability": "view",
      "type": "function",
      "constant": true
    }
  ],
  "bytecode": "0x608060405234801561001057600080fd5b5033600160006101000a81548173ffffffffffffffffffffffffffffffffffffffff021916908373ffffffffffffffffffffffffffffffffffffffff160217905550610776806100616000396000f3fe608060405234801561001057600080fd5b50600436106100365760003560e01c80631be5e7ed1461003b578063dab8e1331461006b575b600080fd5b61005560048036038101906100509190610461565b610087565b6040516100629190610545565b60405180910390f35b61008560048036038101906100809190610567565b61014b565b005b6060600083604051610099919061062e565b908152602001604051809103902082600881106100b9576100b8610645565b5b0180546100c5906106a3565b80601f01602080910402602001604051908101604052809291908181526020018280546100f1906106a3565b801561013e5780601f106101135761010080835404028352916020019161013e565b820191906000526020600020905b81548152906001019060200180831161012157829003601f168201915b5050505050905092915050565b33600160009054906101000a900473ffffffffffffffffffffffffffffffffffffffff1673ffffffffffffffffffffffffffffffffffffffff168173ffffffffffffffffffffffffffffffffffffffff16146101dc576040517f08c379a00000000000000000000000000000000000000000000000000000000081526004016101d390610720565b60405180910390fd5b6060849050806000846040516101f2919061062e565b9081526020016040518091039020856008811061021257610211610645565b5b01908051906020019061022692919061022e565b505050505050565b82805461023a906106a3565b90600052602060002090601f01602090048101928261025c57600085556102a3565b82601f1061027557805160ff19168380011785556102a3565b828001600101855582156102a3579182015b828111156102a2578251825591602001919060010190610287565b5b5090506102b091906102b4565b5090565b5b808211156102cd5760008160009055506001016102b5565b5090565b6000604051905090565b600080fd5b600080fd5b600080fd5b600080fd5b6000601f19601f8301169050919050565b7f4e487b7100000000000000000000000000000000000000000000000000000000600052604160045260246000fd5b610338826102ef565b810181811067ffffffffffffffff8211171561035757610356610300565b5b80604052505050565b600061036a6102d1565b9050610376828261032f565b919050565b600067ffffffffffffffff82111561039657610395610300565b5b61039f826102ef565b9050602081019050919050565b82818337600083830152505050565b60006103ce6103c98461037b565b610360565b9050828152602081018484840111156103ea576103e96102ea565b5b6103f58482856103ac565b509392505050565b600082601f830112610412576104116102e5565b5b81356104228482602086016103bb565b91505092915050565b6000819050919050565b61043e8161042b565b811461044957600080fd5b50565b60008135905061045b81610435565b92915050565b60008060408385031215610478576104776102db565b5b600083013567ffffffffffffffff811115610496576104956102e0565b5b6104a2858286016103fd565b92505060206104b38582860161044c565b9150509250929050565b600081519050919050565b600082825260208201905092915050565b60005b838110156104f75780820151818401526020810190506104dc565b83811115610506576000848401525b50505050565b6000610517826104bd565b61052181856104c8565b93506105318185602086016104d9565b61053a816102ef565b840191505092915050565b6000602082019050818103600083015261055f818461050c565b905092915050565b6000806000606084860312156105805761057f6102db565b5b600084013567ffffffffffffffff81111561059e5761059d6102e0565b5b6105aa868287016103fd565b93505060206105bb8682870161044c565b925050604084013567ffffffffffffffff8111156105dc576105db6102e0565b5b6105e8868287016103fd565b9150509250925092565b600081905092915050565b6000610608826104bd565b61061281856105f2565b93506106228185602086016104d9565b80840191505092915050565b600061063a82846105fd565b915081905092915050565b7f4e487b7100000000000000000000000000000000000000000000000000000000600052603260045260246000fd5b7f4e487b7100000000000000000000000000000000000000000000000000000000600052602260045260246000fd5b600060028204905060018216806106bb57607f821691505b6020821081036106ce576106cd610674565b5b50919050565b7f4f6e6c79206f6666696369616c73206d61792061646420686173686573000000600082015250565b600061070a601d836104c8565b9150610715826106d4565b602082019050919050565b60006020820190508181036000830152610739816106fd565b905091905056fea2646970667358221220ce41dcad8cdbda4d5aa04d7565e03fc38ab329d063d9bf52fa5e9cb0662b8c2964736f6c634300080e0033",
  "immutableReferences": {},
  "source": "// SPDX-License-Identifier: MIT\npragma solidity >=0.4.22 <0.9.0;\npragma experimental ABIEncoderV2;\n\ncontract Results {\n\n  mapping (string => string[8]) hashes;\n  address owner;\n\n  constructor() {\n    owner = msg.sender;\n  }\n\n  modifier onlyOfficial (address sender) {\n    require(\n      sender == owner,\n      \"Only officials may add hashes\"\n    );\n    _;\n  }\n\n  function set\n    (string memory _hash, uint _sem, string memory _roll)\n    public\n    onlyOfficial(msg.sender)\n  {\n    string memory tempHash;\n    tempHash = _hash;\n\n    hashes[_roll][_sem] = tempHash;\n  }\n\n  function get(string memory _roll, uint _sem)\n    public\n    view\n    returns(string memory)\n  {\n    return hashes[_roll][_sem];\n  }\n}",
  "sourcePath": "/home/virus031/Documents/Dev/Blockchain/Github/my-grades-backend/testdir/contracts/Results.sol",
  "compiler": {
    "name": "solc",
    "version": "0.8.14+commit.80d49f37.Emscripten.clang"
  },
  "schemaVersion": "3.4.7",
  "updatedAt": "2022-07-29T17:23:08.331Z",
  "networkType": "ethereum",
  "devdoc": {
    "kind": "dev",
    "methods": {},
    "version": 1
  },
  "userdoc": {
    "kind": "user",
    "methods": {},
    "version": 1
  }
}